:020000040800F2
:10000000C00F002069020008953E0008D53700089F
:10001000913E0008710900086548000800000000D2
:100020000000000000000000000000009D3E0008ED
:10003000D10A000800000000993E0008A13E000817
:10004000830200088302000883020008830200087C
:10005000830200088302000883020008830200086C
:10006000830200088302000883020008830200085C
:10007000830200088302000883020008830200084C
:10008000B90A0008C50A0008830200080000000041
:1000900000000000000000000000000083020008D3
:1000A000830200088302000883020008830200081C
:1000B00051410008830200088302000883020008FF
:1000C00083020008830200088302000883020008FC
:1000D0008302000883020008F547000800000000C2
:1000E0008302000883020008830200080000000069
:1000F0000000000000000000000000008302000873
:100100000000000083020008830200088302000848
:1001100000000000000000000000000000000000DF
:10012000830200088302000883020008830200089B
:100130008302000800000000000000000000000032
:100140000000000000000000000000008302000822
:10015000830200088302000883020008830200086B
:100160008302000883020008000000000000000075
:10017000000000000000000000000000000000007F
:1001800000000000830200080000000000000000E2
:100190008302000800F002F800F057F814A696E871
:1001A000000CB244B344DA4501D100F04EF8BAE88D
:1001B0000F000FA696E83000A5EB040504EB060738
:1001C000AAEB0704A7F101074FEA15154FEA34140B
:1001D000A4F10104AC4201D300F037F813F0010F91
:1001E00018BFFB1A43F0010300F001F8DBE71847E2
:1001F0005451000074510000103A24BF78C878C1EF
:10020000FAD8520724BF30C830C144BF04680C601C
:1002100070470000704700000023002400250026DE
:10022000103A28BF78C1FBD8520728BF30C148BF59
:100230000B607047782900F0D780002070471FB509
:1002400005F02EF81FBD10B510BD00F045FA11469F
:10025000FFF7F5FF04F072FB00F063FA03B4FFF759
:10026000F2FF03BC00F066FA0948804709480047DE
:10027000FEE7FEE7FEE7FEE7FEE7FEE7FEE7FEE756
:10028000FEE7FEE704480549054A064B70470000B3
:100290004D3F000895010008C0030020C00F00205A
:1002A000C0070020C007002053EA020C00F069805C
:1002B0002DE9F04B4FF00006002B1FBFB3FA83F57A
:1002C00003FA05F424FA05F65E4012BF1643B2FAAB
:1002D00082F502FA05F4C5F120051EBF22FA05FCDD
:1002E00044EA0C04203556EA044C4FEA144418BF83
:1002F000641C4FF000084FF00009904271EB030CB2
:1003000039D3002919BFB1FA81F701FA07F6B0FA1B
:1003100080F700FA07F6C7F120071EBF20FA07FC96
:1003200046EA0C062037B6FBF4FCA7EB0507103FA6
:1003300007F01F0BCBF120062CFA06F60CFA0BFB8C
:1003400044BFB3460026202FA4BF5E464FF0000BEB
:100350005BEA060C08BF4FF0010B19EB0B0948EBE9
:100360000608ABFB027C06FB02CC0BFB03CCC01BDC
:1003700071EB0C01C1E70B46024641464846BDE819
:10038000F08B13B5084318BF4FF0FF300146AFF3B1
:100390000080BDE81C40704770B504468569006860
:1003A000C10601D5302600E02026C00707D070BD69
:1003B000D4E9012130469047206A401C20626D1E1E
:1003C000F6D570BD70B5044685690078C00707D1C1
:1003D00070BDD4E9012120209047206A401C206292
:1003E0006D1EF6D570BD000070B504460D46214661
:1003F0001068AFF300802188090502D50F4A7A44BE
:1004000002E00E4A7A440E32002104F1240305E092
:1004100000F00F060009965D5E54491C0028F7D1D4
:1004200020780023000704D5702D02D009B10223E3
:1004300011322046BDE8704000F0BAB8B84E000056
:10044000032A40F2308010F0030C00F0158011F800
:10045000013BBCF1020F624498BF11F801CB00F8D8
:10046000013B38BF11F8013BA2F1040298BF00F82C
:1004700001CB38BF00F8013B11F0030300F0F1801D
:10048000083AC0F0088051F8043B083A51F804CB10
:10049000A0E80810F5E7121D5CBF51F8043B40F8D6
:1004A000043BAFF30080D20724BF11F8013B11F8E1
:1004B00001CB48BF11F8012B24BF00F8013B00F825
:1004C00001CB48BF00F8012B70474FF0000200B588
:1004D000134694469646203922BFA0E80C50A0E867
:1004E0000C50B1F12001BFF4F7AF090728BFA0E815
:1004F0000C5048BF0CC05DF804EB890028BF40F8E1
:10050000042B08BF704748BF20F8022B11F0804F22
:1005100018BF00F8012B704730B44FF0013C50F881
:10052000042B51F8043BCCFA52F4D51A20D1FCB973
:1005300050F8042B51F8043BCCFA52F4D51A17D1D9
:10054000B4B950F8042B51F8043BCCFA52F4D51A44
:100550000ED16CB950F8042B51F8043BCCFA52F48C
:10056000D51A05D1002CDAD030BC4FF0000070470E
:1005700029BAB1FA81F111F01801D1F120008440BB
:10058000F2D1CA40CB4012F0FF0213F0FF0330BC9F
:10059000D01A704770477047704710B500F094F854
:1005A000006810BD10B5044600F08EF8046010BD60
:1005B0002DE9F0470D4699469246044600F124087D
:1005C0000168880604D5E06921F01001216000E08F
:1005D0000120A84201DD471B00E00027A1697A192C
:1005E00002EB0900081AA0612078C00602D4204658
:1005F000FFF7D2FE002608E0D4E901211AF8060030
:100600009047206A401C761C20624E45F4DB20781F
:10061000C0060AD52046FFF7BFFE06E0D4E9012157
:1006200030209047206A401C2062381EA7F1010745
:10063000F4DC07E0D4E9012118F805009047206AAE
:10064000401C2062281EA5F10105F3DC2046FFF7BF
:10065000B9FE2078000602D50220BDE8F08701200F
:10066000FBE710B5203AC0F00B80B1E81850A0E8C5
:100670001850B1E81850A0E81850203ABFF4F5AF70
:100680005FEA027C24BFB1E81850A0E8185044BFCC
:1006900018C918C0BDE810405FEA827C24BF51F839
:1006A000043B40F8043B08BF7047D20728BF31F82D
:1006B000023B48BF11F8012B28BF20F8023B48BF7E
:1006C00000F8012B70470000004870471000002020
:1006D00000487047100000207546FFF7F9FFAE464E
:1006E00005006946534620F00700854618B020B53E
:1006F000FFF7C8FDBDE820404FF000064FF00007AF
:100700004FF000084FF0000BAC46ACE8C009ACE875
:10071000C009ACE8C009ACE8C00921F007018D466A
:10072000704710B50446AFF300802046BDE8104086
:10073000FFF794BD01491820ABBEFEE7260002007A
:100740007047000040F20C00C2F20000002101706E
:1007500040F27000C2F200004078704740F2E4209E
:10076000C2F20000026840F2CF71D162C160002382
:100770000021536302F0E6BA10B511A10446FFF759
:10078000CBFE78B111A12046FFF7C6FE002818BFA6
:1007900010BD40F27000C2F200000321017014216C
:1007A000418010BD40F27000C2F20000017809B132
:1007B00010BD00BF012101704FF49671416010BD62
:1007C00062757A7A207377656570000062757A7A4F
:1007D0002063686B0000000040F27001C2F200016B
:1007E0008860704770B540F27005C2F20005287845
:1007F000013805281AD8DFE800F003511B2D1365D6
:10080000A988002900F08A80E88801392D28A9806C
:10081000C0F09480022028700020E88070BD00BFE6
:100820006888411E0028698000F0828070BD00BF8A
:100830006888411E00286980F8D140F2E420C2F2A5
:1008400000000068C16A49084163142068800420E0
:10085000287070BD6888411E00286980E6D140F28A
:100860008814C2F20004204600F03EFB20464FF000
:10087000FF3100F0B9FA204600F0CEF9204600F032
:10088000BBFB40F2E420C2F200000068002141639B
:10089000142068800520287070BD00BFA988002939
:1008A0003CD0E8884A1E00EB800140F2EE23A3EB27
:1008B0004101B1F5967FAA8046D80120287000201A
:1008C000E88070BD6888411E00286980AED140F282
:1008D0008814C2F20004204600F006FB20464FF0C8
:1008E000FF3100F081FA204600F096F986B22046EA
:1008F00000F082FB0020652E38BF0120687040F2B6
:100900000C00C2F2000001210170A868002100283B
:10091000297008BF70BDBDE87040004740F2E42177
:10092000C2F20001096800202870486370BD00BF52
:10093000062028701420688070BD00BF00EB800185
:100940004FF4967202EB410144F24022C0F20F02D2
:10095000B2FBF1F140F2E422C2F2000213684C1E35
:1009600049080130DC62D4605963E88070BD000042
:10097000FEE7000040F20D00C2F20000002101700D
:1009800040F28C00C2F200004089704780B508A197
:10099000FFF7C2FD58B940F28C00C2F200000178A6
:1009A000002918BF80BD142141600121018080BD54
:1009B0006364732063686B0040F28C01C2F2000133
:1009C0000861704770B584B040F28C05C2F2000532
:1009D0002878022808D0012824D1A88820B301381B
:1009E000A88004B070BD00BF4020ADF80E0040F2FA
:1009F00090204FF0FF36C2F200000DF10E02902160
:100A00000223009601F090F828890121688140F2C4
:100A10000D00C2F200000170286900210028297031
:100A200018BF804704B070BD40F290244020C2F24D
:100A300000048DF80B004FF0FF360DF10B0220463D
:100A400090210123009601F06FF80DF10A02204673
:100A500090210123009600F0D9FE0DF109022046F5
:100A600090210123009600F0D1FE9DF80900E9884D
:100A700008446978E8800131CAB2022A697017D93E
:100A800080B24AF6AB214843400C288102202870EE
:100A90004FF64070ADF80C0040F29020C2F200001A
:100AA00003AA90210223009601F03EF804B070BD25
:100AB0001420A88004B070BD40F2D010C2F2000033
:100AC00000F00EBB40F23020C2F2000000F008BB84
:100AD0007047000072B600BFFEE7000070B581B03D
:100AE0000022009290F83C20012A03D1022001B09C
:100AF00070BD00BFD1F800E001221FFA8EFC4FEA62
:100B00004C0380F83C200EEB4E0213FA8EF31024B7
:100B1000BEF1090F88BFA3F11E0288BF0C24036831
:100B200007251E59954026EA05051D518D681E5959
:100B300005FA02F232431A514968062906D801EB38
:100B400081014A1F194651F8345F0EE00C2901EB70
:100B5000810105D8A1F12302194651F8305F04E064
:100B6000A1F14102194651F82C5F1F24944025EA57
:100B700004040C600CFA02F20C6842F2043CC4F269
:100B8000010C2243ACF54174A3420A603ED1BEF190
:100B9000120F07D1DCF8001041F48001CCF80010EE
:100BA00034E000BF2EF0010110292FD1DCF8001035
:100BB000BEF1100F41F40001CCF8001026D140F234
:100BC0000801C2F2000109684DF68362C4F21B32CB
:100BD000A1FB0212910C01EB8101490000910099E7
:100BE000A1B1009901390091009979B100990139B9
:100BF0000091009951B1009901390091009929B1F2
:100C000000990139009100990029EAD1002180F86A
:100C10003C10002001B070BD0068C06C704700003F
:100C2000002804BF0120704710B5016C00293DD099
:100C3000016CC90645D4016C41F2021291430231A4
:100C400042F204320164C4F20102116821F440311D
:100C50001160136890E812102343D0F810E013607D
:100C60004A68012422F480724A604A68C0F600741F
:100C700042EA0E224A604A6822F040724A604A689C
:100C800042EA0C024A608A6822F400628A60C26802
:100C90008B681A438A60826A8B68A24223F0706371
:100CA0008B608B6810D123F0405216E0044600F0B0
:100CB00065F820460021616484F83C10016CC90687
:100CC000B9D5012153E000BF1A438A608A6822F037
:100CD00040528A60C26A8B681A438A608A6822F02E
:100CE00002028A608A68037E90F8204042EA43024A
:100CF0008A604A6884B142F400624A604A684EF2EF
:100D0000000322F460424A60426ACFF6FF734C68E7
:100D100003EB4232224301E022F400624A60CA6AD5
:100D200040F2000C22F47002CA62C3694269CFF635
:100D3000F07CCC6A0CEB03532343CB628B6823F427
:100D400000738B6090F830308C6844EA43238B60EA
:100D50008B6823F480638B608B6843EA82228A600D
:100D600000214164026C012363F30102026400224A
:100D700080F83C20BDE810400846704780B586B03A
:100D800042F200010068C4F201010022884205928B
:100D9000CDE903220292019202D006B080BD00BFCD
:100DA00043F630000092C4F20200436943F48073BA
:100DB0004361436903F480730093009B00920368CE
:100DC00043F001030360006800F001000090009808
:100DD000012001900320CDE9020201F5604001A944
:100DE00000F078FB06B080BD70B5044600680D4683
:100DF0008268520544BF80685FEAC05038D400F072
:100E00004DFC21680A68920749D40646681C3CD00C
:100E1000DDB90868800721D5086880073FD40868D5
:100E200080071BD50868800739D40868800715D566
:100E30000868800733D4086880070FD508688007E2
:100E4000E7D52CE00868800729D400F027FC801B38
:100E50002168A842F6D908688007F3D4206C40F0D6
:100E600004002064002084F83C00032070BD00BF13
:100E7000206C40F020002064002084F83C00012019
:100E800070BD00BF0868800709D40868800706D4D1
:100E9000086880075CBF08685FEA8070F2D56FF071
:100EA00012000860206C40F400702064886810F024
:100EB000405F01D0002070BD207E0028FAD1C86AB2
:100EC00010F4700F02D088684005F3D4206C20F431
:100ED00080702064206CC004ECD4206C40F00100D1
:100EE0002064002070BD000010B581B00021009189
:100EF00090F83C10012903D1022001B010BD00BFC1
:100F00000468012180F83C10214651F8083FDB07B6
:100F100029D10B684DF6836243F001030B6040F268
:100F20000803C2F200031B68C4F21B32A3FB0223B6
:100F30009A0C02EB42020092009AA2B1009A013A86
:100F40000092009A7AB1009A013A0092009A52B146
:100F5000009A013A0092009A2AB1009A013A00924E
:100F6000009A002AEAD10A68036CD2070CD143F038
:100F70001001016400F1440101200A681043086077
:100F8000002001B010BD00BF40F2017223EA02024E
:100F900002F5807202646268520504D5026C012376
:100FA00063F30D320264026C4FF0000C0023D20494
:100FB00044BF426C22F0060342F2000E436480F804
:100FC0003CC06FF02200C4F2010E2060DEF8040382
:100FD000C00609D074450BD1DEF8080010F0405F60
:100FE00006D14FF08040C8E7086810F0405FF8D0A5
:100FF000002001B010BD000090F83C10012904BF92
:101000000220704701688A6822F001028A608968BC
:10101000C90705D1016C41F201129143013101640C
:10102000002180F83C1000207047000070B5866DEC
:10103000044600F033FB94F83510022928D1054608
:101040002068216C026822F016020260426922F0D8
:101050008002426109B9A16C19B1016821F008014F
:101060000160016821F00101016000BF2068006893
:10107000C00715D000F012FB401B0628F6D3202035
:101080006065032084F83500002184F8341070BDB9
:10109000802060650120002184F8341070BD00BFFD
:1010A000E06D3F2101FA00F0B060012084F83500C6
:1010B0000020002184F8341070BD000090F8351035
:1010C000022909D1052180F835100068016821F056
:1010D00001010160002070478021416501207047B7
:1010E000F0B581B00021009140F20801C2F2000188
:1010F0000B68D0E9166148F2B51537680822C1F6C9
:101100004E358A403A42A3FB05350CD003681C6873
:10111000640708D51C6824F004041C60B260426DAA
:1011200042F00102426501228A403A4208D0036837
:101130005B691B0604D5B260426D42F00202426553
:1011400004228A403A4208D003681B689B0704D5F2
:10115000B260426D42F00402426510228A403A4277
:1011600019D001680B681B0715D5B2600B680A68B7
:101170005B0309D4D20509D40A6822F008020A6088
:10118000016C29B907E000BF110341D4016C11B112
:10119000044688472046C26D202101FA02F33B42F3
:1011A00043D001680F68FF063FD5B36090F83570F3
:1011B0000B68052F1CD123F016030B604B6923F03D
:1011C00080034B61036C0BB9836C1BB10B6823F07C
:1011D00008030B603F219140B160012180F8351078
:1011E000016D0022002980F8342054D158E000BF5E
:1011F0000A685B0310D4D20512D40A6822F01002E8
:101200000A60012180F83510002180F8341007E0D1
:10121000816C0029BCD1BEE7110301D4416C00E010
:10122000C16B11B1044688472046416DC1B3416D81
:10123000C9072ED0052180F835100168AA0A0B686D
:1012400023F001030B60009B0133934200931AD8F3
:101250000B68DB0717D0009B01339342009312D831
:101260000B68DB070FD0009B0133934200930AD831
:101270000B68DB0707D0009B01339342009302D831
:101280000B68DB07DFD1012180F83510002180F8E1
:101290003410C16C21B101B0BDE8F040084700BF77
:1012A00001B0F0BD2DE9F041044600F0F7F9ECB1D2
:1012B0000546022084F835000020216884F83400B7
:1012C000086820F00100086021680868C00711D094
:1012D00000F0E4F9401B0528F6D90325202303205C
:1012E000636584F83550BDE8F08100BF0120BDE89A
:1012F000F08100BF086848F23F02CFF21002D4E943
:10130000013500EA020C04F10C0898E8C10143EA37
:101310000C032B431843D4E9072E304338431043C2
:10132000626A40EA0E00042A40EA08031CD1206BDE
:10133000D4E90A2E40EA0E00184308604869BEF15D
:10134000000F20F0030040EA020040F0040C11D02E
:10135000B8F5005F36D0B8F1000F45D1022A46D06B
:10136000012A3BD032B942E00B60486920F0070007
:1013700040EA020C01F0F8004AF6AB221038CAF637
:10138000AA22A0FB02231A0945F23C33C1F814C07B
:10139000C0F600039A5C40F2FF335F284FF03F0035
:1013A00021EA030100FA02F088BF0431C4E91612F1
:1013B0008860002301250020636584F83550BDE86E
:1013C000F08100BF032AD5D8012540230120DFE8A2
:1013D00002F0030E030500BF82E700BFAEF1C0704C
:1013E000B0FA80F0400904E0032A04D3C2D1CEF35E
:1013F00000600028BED0012540230120636584F8E9
:101400003550BDE8F081000090F834C0BCF1010F08
:1014100004BF0220704770B54FF0010C80F834C053
:10142000D0F858E090F835C0BCF1010F38D14FF03A
:10143000020C80F835C04FF0000CC0F854C0D0F852
:1014400000C08468056CC06DDCF80060402C26F498
:101450008026CCF80060CCF804300B4604BF13465D
:101460000A463F2101FA00F0CCF80830CCF80C20F5
:10147000CEF80800DCF8000040F01600CCF80000C0
:101480002DB1DCF8000040F00800CCF80000DCF8DA
:10149000000040F00100CCF80000002070BD00BF4B
:1014A000002180F83410022070BD0000B0B5044661
:1014B00000F0F4F8054640F20000C2F200000078A7
:1014C000611C18BF044400BF00F0E8F8401BA042B4
:1014D000FAD3B0BD2DE9F04F83B000F1200200F146
:1014E0003E4741F20005009207F1FF77C4F2020582
:1014F00007224FEAB726A84208BF042200254FF072
:1015000000084FF00009042E38BF4FEAB7220192BD
:101510000AE000BF09F1010908F10208B9F1100F52
:1015200005F1040500F0A2800F68012202FA09FE0D
:1015300017EA0E0AEED0D1F804C003220CF003071C
:101540007E1E02FA08F4012E6FEA040B12D884689A
:10155000CE6804EA0B0406FA08F634438460446853
:1015600024EA0E06CCF3001404FA09F4264346607C
:1015700004E000BF032F01D103271EE0C6688C687A
:1015800006EA0B0604FA08F42643022FC66014D1BB
:101590006FF00302009E02EA590756F807C005F0F3
:1015A0001C040F220B69A2402CEA0202A3401A433A
:1015B000F251D1F804C00CF00307026807FA08F3EF
:1015C00002EA0B021A431CF4403F0260A2D0002240
:1015D00043F644030292C4F202031A6843F600443D
:1015E00042F480421A601A68C4F2010402F4804294
:1015F0000292029A29F003024FF6084C2244CFF6D9
:10160000FF7C52F80C3005F00C070F26BE40B343A8
:10161000019E06FA07F73B4342F80C30A2684B687C
:1016200042EA0A0743F60C4CDE0258BF22EA0A07D8
:10163000A760C4F2010CDCF800209E0242EA0A070F
:1016400058BF22EA0A07CCF8007062689E0342EA9B
:101650000A0758BF22EA0A0767602268DB0342EAEA
:101660000A0758BF22EA0A07276053E703B0BDE81C
:10167000F08F00000069084018BF0120704700008B
:10168000426902EA0103914341EA034181617047E3
:10169000002A08BF090481617047000040F2BC3095
:1016A000C2F2000000687047002804BF01207047A4
:1016B000F0B581B0044690F83D0028B9002084F8C8
:1016C0003C00204600F01EFB242084F83D002068EA
:1016D000016821F001010160016841F400410160ED
:1016E000016821F40041016000F0E8FC636848F201
:1016F000A16CC0F2010C40F60011C0F23D0163453F
:101700003CBF48F28041C0F21E01884202D2012053
:1017100001B0F0BD4DF68361C4F21B31A0FB011294
:101720002168970CD1F804E04FF496762EF03F052F
:1017300045EA92454D60774348F638160D6AC0F287
:101740004106A7FB067625F03F07634538BF960C98
:10175000721C3A430A62CA6948F2A0664CF6FF77E7
:10176000C0F20106B34222EA07020BD801385B003F
:10177000B0FBF3F001306FF31F30042898BF042052
:101780001BE000BFA768013857B119277B43B0FBA6
:10179000F3F001306FF31F3070B100F5804007E0C7
:1017A00003EB4303B0FBF3F001306FF31F3018B1CC
:1017B00000F5004001E000BF01201043C861086847
:1017C000D4E9072320F0C00010431843086088685C
:1017D00048F2FF3204F10C0790438CCF18431043BA
:1017E000A6698860C86820F0FF0038433043C860AD
:1017F000086840F00100086000202021206484F87F
:101800003D10206384F83E0001B0F0BD2DE9F043A7
:1018100083B01F46164689460446FFF73FFF94F8FB
:101820003D10202924D10546206800BF8169890721
:101830001AD5FFF733FF411B20681A29F6D38169B7
:101840008907F3D500202021206384F83D1084F817
:101850003E00216C41F02001216484F83C0002200C
:1018600003B0BDE8F08300BF94F83C10012903D118
:10187000022003B0BDE8F083012184F83C10016828
:10188000C90703D1016841F001010160016840F21C
:10189000040821F400610160222184F83D10102128
:1018A00084F83E100021216466626785618DC0F274
:1018B00001082185A8F500310439E162E16A026876
:1018C0000A9F42F4806211F5803F026018BF01292F
:1018D00042D1016841F48071016020464FF001114E
:1018E00000223B46009501F0D5FF58B12068006802
:1018F000C00544BF4FF400702064012003B0BDE870
:10190000F08300BF2069B0F5804F2BD149F0010072
:10191000C0B221683A460861A8F1020120462B4670
:1019200002F09EF80028E8D1208D00285AD0022825
:101930004ED001286ED121680A6822F480620A60C4
:10194000002202924A6902928A690292029A0A6805
:1019500042F400720A6078E00829BAD0216B11299C
:10196000B7D0BAE7062000EAD916206806F1F001E0
:10197000016108F1040120463A462B4602F070F856
:101980000028BAD120685FFA89F10161A8F102014B
:1019900020463A462B4602F063F80028ADD10020DD
:1019A00002902068002241693B46029181690291C0
:1019B0000299016841F48071016020464FF00111E5
:1019C000009501F067FF002890D146F0F100A0E7F4
:1019D00021680A6822F480620A600A6842F40062A0
:1019E0001CE000BF002002902068416902918169DB
:1019F00002910299016841F400710160202084F88D
:101A00003D00002084F83E0084F83C0003B0BDE8AF
:101A1000F08300BF21680A6842F480620A600022F5
:101A200002924A6902928969029102990DE000BF0F
:101A300010690870606A218D01306062481E20853F
:101A4000618D013961850104D8D080B203280FD897
:101A500002284AD001282DD1204639462A4602F0D4
:101A60006BF800287FF449AF2068616A0069E0E7FD
:101A7000204639462A4602F05FF800287FF43DAF41
:101A80002068616A00690870606A2268411C208DC4
:101A9000616201382085638D013B638553695B0773
:101AA000D1D580B20328C3D1106820F480601060C3
:101AB000BEE700BF2046414600223B46009501F0AC
:101AC000E9FE00287FF419AF2068616A026822F4F9
:101AD0008062026000690870606A218D0130606276
:101AE000481E2085608D01386085204641460022D1
:101AF0003B46009501F0CEFE00287FF4FEAE206844
:101B0000616A026842F40072026000690870606AEB
:101B10002268411C6162218D01392185618D013965
:101B200061851169417085E72DE9F04383B01E4658
:101B3000174689460446FFF7B1FD94F83D10202969
:101B400024D10546206800BF816989071AD5FFF7AF
:101B5000A5FD411B20681A29F6D381698907F3D5B1
:101B600000202021206384F83D1084F83E00216C81
:101B700041F02001216484F83C00022003B0BDE85C
:101B8000F08300BF94F83C10012903D1022003B078
:101B9000BDE8F083012184F83C100168C90703D136
:101BA000016841F001010160016840F2020821F47E
:101BB00000610160212184F83D10102184F83E105D
:101BC0000021216467626685618DC0F2010821856C
:101BD000A8F10211E162E16A0A9E11F5803F18BF87
:101BE00001291DD1016841F48071016020464FF048
:101BF000011100223346009501F04CFE50B12068DF
:101C00000068C00544BF4FF400702064012003B099
:101C1000BDE8F0832069B0F5804F07D1FE2015E0C4
:101C20000829DFD0216B1229DCD0DFE7062000EA8B
:101C3000D9102168F030086108F1060120463246CB
:101C40002B4601F00DFF0028E0D1FF20216800EABB
:101C5000090008612046414632462B4601F000FF4C
:101C60000028D3D100200290206841690291806948
:101C70000290029806E000BF204631462A4601F055
:101C8000ABFD18BB208D68B3204631462A4601F0D3
:101C90009BFFD8B9606A2168024612F8013B0B61CC
:101CA0006262628D013A6285228D531E23854F69DF
:101CB0007F07E1D51B04DFD0437802300B616062FF
:101CC000608D01386085901E2085D5E7206C042842
:101CD0009CD12068016841F400710160012003B0CB
:101CE000BDE8F0832068016841F4007101602020A4
:101CF00084F83D00002084F83E0084F83C0003B0E6
:101D0000BDE8F083B0B586B045F200410068C4F28A
:101D10000001002488420594CDE903440294019413
:101D200002D006B0B0BD00BF43F630050094C4F247
:101D30000205286840F002002860286800F00200D0
:101D4000009000984FF4407001901220CDE90204F9
:101D5000032004900420059001F5D83001A9FFF775
:101D6000B9FB0094286940F400102861286900F448
:101D700000100090009806B0B0BD0000002804BF1D
:101D80000120704770B504460068D4E901124CF692
:101D9000CC43036045F25553036041608260FFF716
:101DA0007DFC2168CA68920712D0054641F60206FA
:101DB00003E000BFC86880070AD0FFF76FFC401B34
:101DC0002168B042F6D3C8688007F3D0032070BD05
:101DD0004AF6AA200860002070BD000001684AF69B
:101DE000AA2200200A60704740F2000040F2BC3195
:101DF000C2F20000C2F2000100780A6810440860D4
:101E00007047000080B543F60040C4F2020001684C
:101E100041F400710160016841F480610160016872
:101E200041F480710160032000F086F8002000F08A
:101E300005F800F027F8002080BD000070B540F2E2
:101E40000006C2F2000640F208013278C2F2000138
:101E50004FF47A730968B3FBF2F20446B1FBF2F176
:101E6000084600F061FB0F2C4FF0010508D838B987
:101E70004FF0FF3021460022002500F031F8746059
:101E8000284670BD82B0002043F640010190C4F2A4
:101E900002014A6842F480424A604A6802F4804281
:101EA0000192019A0090086840F08050086008682C
:101EB00000F080500090009802B07047002848BFA2
:101EC000704700F01F01012202FA01F11C2202EA10
:101ED000D0004EF20012CEF2000281507047000096
:101EE00010B54EF60C5CCEF2000CDCF80030C3F3FB
:101EF000022E8EF00704042C28BF0424BEF1030335
:101F00004FF0FF3E0EFA04F438BF0023A14399407E
:101F10000EFA03F39A43114300F00F0200F16043FD
:101F20000901043A03F564436244002848BF02F102
:101F30000C03197010BD00004EF60C51CEF20001DA
:101F40000A684FF6FF031A4060F30A2242F08060ED
:101F500040F0FD7008607047002804BF0120704702
:101F60002DE9F04143F60808C4F202080446D8F807
:101F7000F8030D4600F00700814207D988F8F853AE
:101F8000D8F8F80300F00700A84277D1206881074D
:101F900017D5410705D5D8F8001041F4E051C8F82D
:101FA0000010010705D5D8F8001041F46041C8F8C9
:101FB0000010D8F80010A26821F0F0011143C8F811
:101FC0000010C00740D1D8F8F80300F007008542A0
:101FD00007D288F8F853D8F8F80300F00700A842B1
:101FE0004CD12068410707D5D8F80010E26821F4E9
:101FF000E0511143C8F80010000708D5D8F80000D8
:10200000216920F4604040EAC100C8F8000000F0F7
:102010007DF8D8F8001045F22432C1F30311C0F660
:102020000002515C40F2080220FA01F140F2040083
:10203000C2F200000068C2F200021160FFF7FEFE6B
:102040000020BDE8F08100BF6068811E022907D230
:1020500058F8081C89015CBF0120BDE8F08111E03F
:10206000012807D158F8081C89035CBF0120BDE88E
:10207000F08107E058F8081C890703D40120BDE867
:10208000F08100BFD8F8001021F003010843C8F820
:102090000000FFF703FB064641F28837D8F800003E
:1020A000616800F00C00B0EB810F8CD0FFF7F6FAFE
:1020B000801BB842F2D90320BDE8F08140F208004D
:1020C00043F60801C2F20000C4F202010068096888
:1020D00045F23432C1F38221C0F60002515CC8409F
:1020E0007047000040F2080043F60801C2F2000009
:1020F000C4F202010068096845F23432C1F342318A
:10210000C0F60002515CC8407047000010B543F6AD
:102110000404C4F202046168C1F3810142F2004088
:10212000C0F2F400DFE801F002040A0210BD00BFB3
:1021300041F20020C0F27A0010BD00BF216801F01A
:102140003F02216823684902C3F3881106D4A1FB2A
:1021500000010023FEF7A8F807E000BF41F20020CD
:10216000C0F27A004843B0FBF2F021680222C1F3CA
:10217000014102EB4101B0FBF1F010BD002804BFAA
:10218000012070472DE9F04182B00446007843F603
:102190000006C007C4F202060CD0B06800F00C00C4
:1021A000042840F081803068800303D560680028EF
:1021B00000F06881207880071BD5B06810F00C0F04
:1021C00009D0B06800F00C00082840F087807068E3
:1021D000400200F183803068800703D5E068012861
:1021E00040F050813068216920F0F80040EAC100D9
:1021F00030602078000713D4207840072AD4A569DE
:10220000002D00F03A81B06800F00C00082840F082
:10221000A580012D40F00E81012002B0BDE8F081C3
:102220006069002800F082800020C4F2472001216C
:10223000C0F8801EFFF732FA054600BF706F8007B6
:10224000DAD4FFF72BFA401B0228F7D9032002B09B
:10225000BDE8F081306C5FEAC0080AD4002001902C
:10226000306C40F080503064306C00F08050019051
:10227000019847F20007C4F200073868C00547D448
:10228000386840F480703860FFF708FA054600BFF0
:102290003868C0053CD4FFF701FA401B0228F7D983
:1022A000032002B0BDE8F081B06800F00C000828FF
:1022B00003D1706840023FF576AF61683068B1F5D0
:1022C000803F07D0B1F5A02F40F09A8040F48020E5
:1022D0003060306840F4803030609AE0E068002878
:1022E00040F20000C4F247205CD001210160FFF7FA
:1022F000D5F90546306880073FF574AFFFF7CEF992
:10230000401B0228F6D9032002B0BDE8F08100BFCF
:10231000A168306F012905D0052955D140F004008E
:102320003067306F40F00100306756E00020C4F2A3
:1023300047200021C0F8801EFFF7B0F9054600BF16
:10234000706F80077FF558AFFFF7A8F9401B022890
:10235000F6D9032002B0BDE8F08100BF0027C4F227
:10236000472700203866FFF799F9022D05460DD161
:102370003068800140F18A80FFF790F9401B022805
:102380004FF00300F4D902B0BDE8F081306880015D
:1023900073D5FFF783F9401B02284FF00300F5D9EE
:1023A000F1E700BF00210160FFF778F9054600BFA3
:1023B000306880077FF51DAFFFF770F9401B0228DA
:1023C0004FF00300F4D9DEE720F001003067306FF2
:1023D000002920F0040030677AD0FFF75FF9054646
:1023E00041F28837306F800700F18480FFF756F99B
:1023F000401BB842F6D9032002B0BDE8F08100BF0F
:1024000020F4803030603068002920F48020306073
:102410007AD0FFF743F90546306880033FF5CAAE2E
:10242000FFF73CF9401B6428F6D9032002B0BDE851
:10243000F08100BF7068E16900F480028A4221D116
:10244000216A00F03F028A421CD147F6C071626ADD
:102450000140B1EB821F15D1A16A4FF6FF73C9038A
:10246000994300F44032A1F580318A420AD1E16AF1
:1024700000F07060B0EB016F04D1002002B0BDE845
:10248000F08100BF012002B0BDE8F08104F11C051D
:102490002FCD084340EA8210D9034FF6FF729143D3
:1024A000A1F5803140EA056008437060012038667C
:1024B000FFF7F4F8044600BF30688001DDD4FFF771
:1024C000EDF8001B02284FF00300F5D95BE700BFD1
:1024D000FFF7E4F8054641F2883700BF306F800708
:1024E00008D5FFF7DBF8401BB8424FF00300F5D9E1
:1024F00049E700BFB8F1000F3FF581AE306C20F026
:10250000805030647BE600BFFFF7C8F8054600BF87
:10251000306880037FF54EAEFFF7C0F8401B64289B
:102520004FF00300F4D92EE7411E0020B0EB116FED
:102530001CBF012070474EF21002CEF20002516023
:102540004EF62351CEF20001F0230B70072190606C
:1025500011607047704700007047000090F83C2001
:10256000012A04BF02207047B0B501F108053CCD37
:10257000D1E900CE23F47C5322F470521A432EF496
:10258000F0431A432CF4E0431A4324F4C0431A43A3
:102590002A43C96922F48042036811435964002127
:1025A00080F83C100020B0BD90F83C20012A4FF08C
:1025B000020241D010B580F83D200268D2F804E054
:1025C000D2F808C00C682EF07003234340F6FF34A5
:1025D000C4F20004A242536010DCB2F1804F1ED05E
:1025E00040F20043C4F200039A4218D040F60003C0
:1025F000C4F200039A4212D016E000BF40F6004336
:10260000C4F200039A420AD044F20003C4F2010368
:102610009A4204D00023C4F201039A4204D14968CB
:102620002CF08003194391600121002280F83D10B5
:1026300080F83C20BDE8104010467047002804BFD9
:102640000120704710B5044690F83D0028B90020DD
:1026500084F83C00204600F01FF8022084F83D007A
:102660002068211D01F07AFD012084F8460084F8DD
:102670003E0084F83F0084F8400084F8410084F86C
:10268000420084F8430084F8440084F8450084F84C
:102690003D00002010BD00000068B0F1804F18BF61
:1026A000704780B582B00020019043F64000C4F22C
:1026B00002000168002241F0010101600068002170
:1026C00000F00100019001981C20FFF709FC1C207C
:1026D00002B0BDE88040FFF7F1BB000090F83D106C
:1026E00001291CBF01207047022180F83D100068BD
:1026F00040F6FF32C168C4F20002904241F001018D
:10270000C1600FDCB0F1804F1DD040F20041C4F237
:102710000001884217D040F60001C4F2000188424F
:1027200011D017E040F60041C4F2000188420AD0FF
:1027300044F20001C4F20101884204D00021C4F235
:102740000101884206D1816801F00701062904BF12
:1027500000207047016841F00101016000207047CE
:1027600090F83C20012A4FF002026CD080B580F82E
:102770003D20D0F800C04FF67772DCF8083023EA2D
:102780000202CCF808200B684F2B29DC1F2B45DDFB
:10279000202B46D0302B44D0402B40F0AF80D1F8D6
:1027A00004E0C968DCF82030DCF8202022F00102C7
:1027B000CCF82020DCF8182022F0F00242EA0111C7
:1027C00023F00A0242EA0E02CCF81810CCF82020BE
:1027D000DCF8081041F0470121F0300128E000BF8B
:1027E0006F2B33DDB3F5005F74D0B3F5805F21D07C
:1027F000702B40F08380D1E901E3C968DCF8082040
:1028000043EA0E0322F47F4243EA01211143CCF84C
:102810000810DCF8081041F0770109E00BB1102B2B
:102820006CD1DCF8081021F07001194341F0070168
:10283000CCF808100022012180F83D10002180F81A
:102840003C10BDE880401046704700BF502B21D09F
:10285000602B53D1D1F804E0C968DCF82030DCF8F3
:10286000202022F01002CCF82020DCF8182022F4DE
:10287000704242EA013123F0A00242EA0E12CCF883
:102880001810CCF82020DCF8081041F0670121F086
:102890001001CDE7D1F804E0C968DCF82030DCF89D
:1028A000202022F00102CCF82020DCF8182022F0B1
:1028B000F00242EA011123F00A0242EA0E02CCF8C9
:1028C0001810CCF82020DCF8081041F0570121F056
:1028D0002001ADE7D1E901E3C968DCF8082043EA4B
:1028E0000E0322F47F4243EA01211143CCF8081081
:1028F000DCF8081041F480419AE700BF01229AE712
:102900007047000070B504460068C5680669B107E5
:1029100016D515F0020113D06FF0020101610121FB
:1029200021778069800703D02046FFF7E9FF05E0A3
:10293000204600F0BDF8204600F002FA0020207783
:10294000700719D515F0040016D020686FF0040147
:10295000016102212177806910F4407F04D0204674
:10296000FFF7CEFF06E000BF204600F0A1F82046AA
:1029700000F0E6F900202077300717D515F00800A1
:1029800014D020686FF00801016104212177C0692B
:10299000800703D02046FFF7B3FF05E0204600F094
:1029A00087F8204600F0CCF900202077F00619D5F2
:1029B00015F0100016D020686FF010010161082199
:1029C0002177C06910F4407F04D02046FFF798FFBC
:1029D00006E000BF204600F06BF8204600F0B0F99A
:1029E00000202077F00718BF15F0010002D1300653
:1029F00009D412E020686FF001010161204600F067
:102A000019FA300609D515F0800006D020686FF05D
:102A1000800101612046FFF79DFD700609D515F084
:102A2000400006D020686FF040010161204600F0B0
:102A30001BFAB00658BF70BD15F0200008D0216801
:102A40006FF0200220460A61BDE87040FFF784BDA8
:102A500070BD000080B586B000210068C4F201019D
:102A6000002288420592CDE903220292019201D010
:102A700006B080BD43F630000092C4F20200036845
:102A800043F001030360006800F00100009000982B
:102A90004FF4807001900220CDE9020201200590E0
:102AA00001F5803001A90492FEF714FD06B080BD47
:102AB0007047000090F83C30012B04BF02207047A3
:102AC0004FEAB202032A00F2ED802DE9F043DFE87D
:102AD00002F003A3397300BF036800261D6A1A6A57
:102AE000C4F2010622F001021A621A465C6852F82A
:102AF00018CFB3428E68D1F800E025F0020545EA10
:102B000006050CD1CE68D1E9057824F4407425F08F
:102B10000C0526F004063C43354344EA08042CF037
:102B2000730747EA0E075C609F614F6809695F633E
:102B30001D629F6947F008079F619F6927F004079E
:102B40009F61A4E0036800261D6A1A6AC4F20106A8
:102B500022F480721A621A46D3F804C052F81CEFAD
:102B6000B3428E680C6825F4007545EA06250FD13E
:102B7000CE68D1E90598360240F2FF4725F440655A
:102B8000BE4335432CF4405748EA090647EA061C81
:102B90002EF073072743C3F804C0DF614F6809694B
:102BA000DF631D62DF6947F00807DF61DF6927F037
:102BB0000407DF616BE000BF03680027D3F820C083
:102BC0001A6AC4F2010722F480521A621A465C683B
:102BD00052F81C5FD1F800E08E68BB4204D14F6907
:102BE00024F4804444EA87142CF4005747EA06375B
:102BF00025F4E64646EA0E265C60DE614E68096909
:102C00001E641F62DF6947F40067DF61DF6927F434
:102C10008067DF613AE000BF036800261D6A1A6A18
:102C2000C4F2010622F010021A621A46D3F804C058
:102C300052F8184FB3428E68D1F800E025F0200515
:102C400045EA06150FD1CE68D1E905986FF0400727
:102C500025F0C00507EA061635432CF4406748EA1C
:102C6000090647EA860C24F4E64444EA0E27C3F832
:102C700004C09F614F6809699F631D629F6947F4A3
:102C800000679F619F6927F480679F61090213684D
:102C9000194311600021BDE8F043002280F83C2078
:102CA000084670470121002280F83C200846704702
:102CB000002804BF0120704710B5044690F83D007D
:102CC00028B9002084F83C00204600F01FF80220BC
:102CD00084F83D002068211D01F040FA012084F8AD
:102CE000460084F83E0084F83F0084F8400084F8F1
:102CF000410084F8420084F8430084F8440084F8DA
:102D0000450084F83D00002010BD0000006800214F
:102D1000C4F20101884218BF704781B000200090C2
:102D200043F64400C4F20200016841F00101016071
:102D3000006800F001000090009801B070470000AA
:102D400070470000C1B1042908D0082914BF4122EE
:102D50004022825C012A05D016E000BF3F22825C3F
:102D6000012A11D10222082910D0042914BF80F8A9
:102D7000412080F83F200BE090F83E20012A03D14B
:102D8000022280F83E2003E00120704780F84020B6
:102D9000006801F01F010122036A8A4023EA020150
:102DA0000162036A4421C4F201011A43A1F1440300
:102DB0009842026216D040F6FF31C4F20001884208
:102DC0001ADCB0F1804F28D040F20041C4F200017B
:102DD000884222D040F60001C4F2000188421CD093
:102DE00022E000BF0A6842F400420A6040F6FF3168
:102DF000C4F200018842E4DD40F60041C4F2000163
:102E000088420AD044F20001C4F20101884204D091
:102E10000021C4F20101884206D1816801F0070156
:102E2000062904BF00207047016841F001010160DC
:102E3000002070470068B0F1804F18BF704780B520
:102E4000FDF7C0FD01F0BAF800F084FFFDF7CAFC01
:102E500040F2AC00C2F2000041780029BDE8804099
:102E600004BF0121017070477047000070470000E7
:102E700070470000B0B582B001680A68CC684B6941
:102E800002F02F05202D04F0200505D125B102B058
:102E9000BDE8B04001F0BABB5FEA027C1EBF03F0A0
:102EA000010E04F4907313EB0E0341D1036BD506AE
:102EB00018D5012B16D114F0100313D00022019263
:102EC0000A6801924A680192019A496949064BD4FD
:102ED000818DC28DC38D002B18BF914240F00682B8
:102EE00002B0B0BD13062DD514F080032AD090F89F
:102EF0004120212AF4D18268B2F5805F03D10269B2
:102F0000002A00F07982026A531C036212784A6038
:102F1000C28C013A1304C284E2D1C86820F0800058
:102F2000C860C86840F04000C86002B0B0BD00BFD3
:102F3000D30718BF14F4807340F0E280530700F108
:102F4000E580EAE05206CBD514F04002C8D0CA684A
:102F500022F04002CA60202180F8411002B0BDE892
:102F6000B04000F033BC00BFC26B11684B68858D68
:102F700099B2002900F0B480A94280F0B180C385E5
:102F8000D169B1F5807F00F0A080016851E8031F8E
:102F9000026821F4807142E80313DBB1016851E853
:102FA000031F026821F4807142E8031393B10168A2
:102FB00051E8031F026821F4807142E803134BB10A
:102FC000016851E8031F026821F4807142E803138D
:102FD000002BDAD1016851E8051F026821F00101D8
:102FE00042E80513BBB3016851E8051F026821F0F0
:102FF000010142E8051373B3016851E8051F026837
:1030000021F0010142E805132BB3016851E8051FC7
:10301000026821F0010142E80513002BDAD11AE021
:10302000016851E8051F026821F0400142E80513DC
:10303000DBB1016851E8051F026821F0400142E858
:10304000051393B1016851E8051F026821F04001A2
:1030500042E805134BB1016851E8051F026821F0F1
:10306000400142E80513002BDAD1202180F84210FC
:1030700000210163016851E8031F026821F010017B
:1030800042E80313DBB1016851E8031F026821F035
:10309000100142E8031393B1016851E8031F02686D
:1030A00021F0100142E803134BB1016851E8031FFE
:1030B000026821F0100142E80313002BDAD1C16B42
:1030C00004460846FDF7B2FF204602214163818D88
:1030D000C28D891A89B202B0BDE8B040FFF7C6BE02
:1030E0008D427FF4FDAED269B2F5807F7FF4F8AEF9
:1030F0000222426302B0BDE8B040FFF7B7BE00BF96
:10310000436C43F001034364530706D5BEF1000F3F
:1031100003D0436C43F002034364930706D5BEF12A
:10312000000F03D0436C43F004034364BCF1000F71
:1031300006D55EEA050303D0436C43F008034364FD
:10314000436C002B3FF4CCAE920605D525B1044666
:1031500001F05CFA216820464969426C01F04001A7
:1031600002F00802891800F0B98000BF016851E838
:10317000031F026821F4907142E80313BBB3016896
:1031800051E8031F026821F4907142E8031373B3FE
:10319000016851E8031F026821F4907142E80313AB
:1031A0002BB3016851E8031F026821F4907142E8D3
:1031B0000313002BDAD11AE0016851E8051F0268F9
:1031C00021F0010142E80513DBB1016851E8051F58
:1031D000026821F0010142E8051393B1016851E84A
:1031E000051F026821F0010142E805134BB1016897
:1031F00051E8051F026821F0010142E80513002B88
:10320000DAD1016B012924D1016851E8031F02685A
:1032100021F0100142E80313DBB1016851E8031FFC
:10322000026821F0100142E8031393B1016851E8EC
:10323000031F026821F0100142E803134BB101683B
:1032400051E8031F026821F0100142E80313002B2C
:10325000DAD1202180F84210002101630168496918
:10326000490640F1C380016851E8051F026821F05A
:10327000400142E80513DBB1016851E8051F02680F
:1032800021F0400142E8051393B1016851E8051FA0
:10329000026821F0400142E805134BB1016851E892
:1032A000051F026821F0400142E80513002BDAD126
:1032B000C16B002900F09A8044F25522C0F600024A
:1032C000044608460A65FDF7F9FE00283FF408AEFB
:1032D000E06B016D02B0BDE8B04008470446FFF75F
:1032E000C7FD0020606402B0B0BD00BF891A00BFF6
:1032F000026852E8032F036822F4907243E8032522
:10330000BDB3026852E8032F036822F4907243E8C9
:10331000032575B3026852E8032F036822F4907204
:1033200043E803252DB3026852E8032F036822F413
:10333000907243E80325002DDAD11AE0026852E8C2
:10334000052F036822F0010243E80525DDB102687C
:1033500052E8052F036822F0010243E8052595B1E4
:10336000026852E8052F036822F0010243E80525B0
:103370004DB1026852E8052F036822F0010243E8CC
:103380000525002DDAD1202280F842200022026398
:10339000026852E8032F036822F0100243E8032575
:1033A000DDB1026852E8032F036822F0100243E8FF
:1033B000032595B1026852E8032F036822F010023A
:1033C00043E803254DB1026852E8032F036822F059
:1033D000100243E80325002DDAD1022289B24263AC
:1033E00002B0BDE8B040FFF741BD00BF02B0BDE88C
:1033F000B040FFF73DBD00BF026A32F8023B6FF3F9
:103400005F234B60026283E5002804BF0120704700
:1034100010B5044690F8410028B9002084F8400017
:10342000204600F021F8242084F841002068C1687B
:1034300021F40051C160204601F068F9206801695B
:1034400021F490410161416921F02A014161C16883
:1034500041F40051C16000202021606484F84110D3
:1034600084F84210606310BD2DE9F04786B0044631
:1034700044F200402168C4F2000000268142059613
:10348000CDE903660296019602D006B0BDE8F0874A
:1034900043F630010096C4F202010A6946F2880838
:1034A00042F400320A610A6900F5DE3002F40032AB
:1034B0000092009A00960A68C4F2020842F00102E3
:1034C0000A60096801F00101009100990C21019145
:1034D0000221CDE902160721059101A90496FDF705
:1034E000F9FF40F2D015C2F200054FF480704FF0A2
:1034F000006A4FF48069C5E906604FF4003728463A
:10350000C5E9008AC5E90266C5E90496C5E90876F9
:10351000FDF7C8FE002818BFFDF7DCFAE563AC63D1
:1035200040F2302508F11800C2F200054021C5E93B
:10353000000A05F10800002280E806022846C5E9D5
:103540000522EA61C5E90872FDF7ACFE002818BF44
:10355000FDF7C0FA262000210022A563AC63FEF728
:10356000BFFC2620FEF7AAFC06B0BDE8F0870000ED
:1035700070B582B090F84250202D0BD113460A4608
:103580000146002A4FF0010018BF002B06D102B0FF
:1035900070BD00BF022002B070BD00BF0026222017
:1035A0000E638A628B854E6481F842000C680D467A
:1035B000C86B44F2DD3C44F23D51C0F6000CC0F64D
:1035C0000001C0E90FC144F26121C0F60001C0E969
:1035D0001316211DFDF718FF40B11020686420204C
:1035E00085F84200012002B070BD00BF0196286836
:1035F000294602680192406801900198286928B321
:10360000086850E8030F0A6840F4807042E803033A
:10361000E3B1086850E8030F0A6840F4807042E89C
:1036200003039BB1086850E8030F0A6840F48070F8
:1036300042E8030353B1086850E8030F0A6840F4F6
:10364000807042E80303002BDAD100BF086850E81D
:10365000050F0A6840F0010042E80503DBB3086883
:1036600050E8050F0A6840F0010042E8050393B3F3
:10367000086850E8050F0A6840F0010042E80503B9
:103680004BB3086850E8050F0A6840F0010042E8B3
:103690000503002BDAD11EE0086850E8050F0A6820
:1036A00040F0400042E80503FBB1086850E8050F10
:1036B0000A6840F0400042E80503B3B1086850E8EA
:1036C000050F0A6840F0400042E80503002B4FF068
:1036D00000003FF45CAF086850E8050F0A6840F04E
:1036E000400042E80503002BD6D1002002B070BD97
:1036F0007047000070470000B0B590F84140202CA2
:103700001CBF0220B0BD1346024600294FF0010045
:1037100018BF002B00D1B0BD4FF0000C212011626A
:103720009384D384C2F844C082F8410014681546DB
:10373000906B44F2555E44F20562C0F6000EC0F68E
:103740000002C0E90FE244F26122C0F60002C0E9C3
:10375000132C221DFDF758FE30B110206864202084
:1037600085F841000120B0BD286829466FF040026D
:10377000026000BF086850E8050F0A6840F080004A
:1037800042E8050303B3086850E8050F0A6840F0F3
:10379000800042E80503BBB1086850E8050F0A68DD
:1037A00040F0800042E8050373B1086850E8050F57
:1037B0000A6840F0800042E80503002B4FF000004B
:1037C00008BFB0BDD6E700BF0020B0BD7047000005
:1037D00070470000FEE7000070B50368044653F828
:1037E000140F400711D40E46481C29D086BB00BFD9
:1037F0001868400527D4FDF751FF236853F8140FCC
:10380000400737D518684007F2D5002070BD00BFCB
:1038100018684007F9D41868400514D418684007A0
:10382000F3D4186840050ED418684007EDD4186822
:10383000400508D4186840074FF0000048BF70BD2D
:1038400018684005E4D56FF480601860042012E029
:10385000154603E053F8140F4007D6D41868400506
:10386000F1D4FDF71BFF401B2368B042F2D9586921
:103870004007EFD4202000212022216384F83D203E
:1038800084F83E10226C10432064012084F83C1020
:1038900070BD00002DE9F041054600681E46144643
:1038A00001F47F0201338FB242D0DDF81880B2F507
:1038B000803F40F0878040693840C01BB0FA80F0FC
:1038C0004009844240F0C8804EB924E04069384045
:1038D000C01BB0FA80F04009844240F0BD80FDF783
:1038E000DDFEA0EB08012868B142EFD941693940FB
:1038F000C91BB1FA81F149098C42E7D19BE000BFB5
:1039000040693840C01BB0FA80F0400984424FF053
:10391000000040F0A280FDF7C1FE286841693940EF
:10392000C91BB1FA81F149098C42E9D183E000BF9A
:10393000B2F5803F24D100BF41693940C91BB1FABB
:1039400081F149098C4240F0878041693940C91BA7
:10395000B1FA81F149098C4240F07E8041693940D9
:10396000C91BB1FA81F149098C4275D141693940CD
:10397000C91BB1FA81F149098C42DDD06CE000BF6E
:1039800081693940C91BB1FA81F149098C4263D17F
:1039900081693940C91BB1FA81F149098C425BD177
:1039A00081693940C91BB1FA81F149098C4253D16F
:1039B00081693940C91BB1FA81F149098C42DFD0D4
:1039C0004AE000BF80693840C01BB0FA80F040096F
:1039D000844241D146B923E080693840C01BB0FA27
:1039E00080F04009844237D1FDF758FEA0EB080172
:1039F0002868B142F0D981693940C91BB1FA81F117
:103A000049098C42E8D116E080693840C01BB0FA01
:103A100080F0400984424FF0000018BFBDE8F081FB
:103A2000FDF73CFE286881693940C91BB1FA81F174
:103A300049098C42E8D100202021286385F83D10F7
:103A400085F83E00296C41F02001296485F83C008E
:103A50000120BDE8F08100BF0020BDE8F08100003A
:103A6000F0B581B0044600681D4643698FB203EA91
:103A70000701B94202D1002001B0F0BD41691646EC
:103A800001323CD0490512D47EB300BFFDF706FEDB
:103A9000411B2068B14203D941693940B9422BD159
:103AA00041693940B942E6D041694905EED501681E
:103AB00041F4007101606FF48061416104200021D4
:103AC0002022216384F83D2084F83E10226C1043AC
:103AD000206484F83C10012001B0F0BD41693940F8
:103AE000B942C8D041694905E1D4FDF7D7FD206846
:103AF00041693940B942F1D02020E0E741694905E8
:103B0000D5D441693940B942B5D041694905CED4CF
:103B100041693940B942AED041694905C7D44169CC
:103B20003940B942A7D041694905C0D441693940FB
:103B3000B942E3D19FE7000070B50446006815461E
:103B400050F8143F5A063DD40E4629B926E000BF6E
:103B500050F8141F490635D40168C90621D4FDF771
:103B60009DFD411B2068B142F2D941694906EFD45D
:103B700000202021206384F83D1084F83E00206C52
:103B800040F0200018E000BFFDF788FD206850F8E5
:103B9000141F4906ECD50168490613D40168C9060B
:103BA000F2D56FF01001016000202021206384F81D
:103BB0003D1084F83E00206C2064002084F83C0016
:103BC000012070BD002070BD70B50368044653F835
:103BD000140F000611D40E46481C29D086BB00BF26
:103BE0001868400527D4FDF759FD236853F8140FD2
:103BF000000637D518680006F2D5002070BD00BF5A
:103C000018680006F9D41868400514D4186800062E
:103C1000F3D4186840050ED418680006EDD418686F
:103C2000400508D4186800064FF0000048BF70BD7A
:103C300018684005E4D56FF480601860042012E035
:103C4000154603E053F8140F0006D6D41868400553
:103C5000F1D4FDF723FD401B2368B042F2D9586927
:103C60000006EFD4202000212022216384F83D208B
:103C700084F83E10226C10432064012084F83C102C
:103C800070BD000040F20E00C2F200000021017081
:103C900040F27C00C2F20000407970470020C4F27C
:103CA00002004FF400710122FDF7F2BCB0B51DA176
:103CB0000446FCF731FC40F27C05C2F2000529788D
:103CC00010B139B1B0BD00BF0229FBD0022028706D
:103CD000B0BD00BF15A12046FCF71EFC80B115A1A8
:103CE0002046FCF719FC88B115A12046FCF714FC0E
:103CF000002818BFB0BD1420E87004202870B0BDA3
:103D0000012028704FF49670E880B0BD0320288011
:103D100040F22C10C0F21400C5F806000020A87074
:103D2000B0BD00BF6C6564206F6666006C65642082
:103D30006F6E00006C656420746F67676C650000CF
:103D40006C65642063686B0040F27C01C2F2000184
:103D5000C860704770B540F27C05C2F20005287853
:103D60000138042800F27B80DFE800F0044C3E5864
:103D7000140000BF0024C4F2020420464FF4007176
:103D800000220026FDF784FCE888002860D0013876
:103D9000E88070BDE878002842D10024C4F2020413
:103DA00020464FF4007101220126FDF771FC04F555
:103DB00000608021FDF75EFCC0B2297980F001002F
:103DC0000843B0FA80F04009687140F20E00C2F278
:103DD00000000670E86800210028297008BF70BD47
:103DE000BDE87040004700BFE88858B12989013814
:103DF000E880A9B3481E81B22881B1FA81F0400958
:103E000088BB2CE00020C4F202004FF400710122B4
:103E1000FDF73EFC0020287070BD00BFE87818B1A7
:103E20000138E87070BD00BF0024C4F202042046CF
:103E30004FF400710022FDF72BFC04F50060802197
:103E4000FDF718FC28711E20E8700520287070BD51
:103E500020464FF400710122FDF71AFC2E7070BD50
:103E600001200028FBD068781328F8D8AA784FF4EE
:103E7000007182F00100A8700020C4F20200FDF77A
:103E800007FC6878013068701420288170BD00003C
:103E9000FEE70000FEE700007047000070470000EA
:103EA000FDF7A2BF70B592B006AC20463021FCF7FA
:103EB0000CFB002543F640000595CDE90355CDE9FF
:103EC00001550095C4F202000168022641F08051BC
:103ED0000160006800F080500090009847F20000F8
:103EE0000095C4F20000016866F38F31016000683C
:103EF000102100F44040009000980A200690012014
:103F00000990CDE90A1008200E905020CDE90F0647
:103F1000072011902046CDE90C65FEF72FF918B166
:103F200072B600BFFEE700BF0F20CDE901064FF4D7
:103F30008050CDE9040501A802210395FEF70CF895
:103F400010B172B6FEE700BF12B070BD4EF68850D9
:103F5000CEF20000016841F470010160704700007A
:103F600040F20F00C2F200000021017040F28C000C
:103F7000C2F2000090ED070A7047000080B509A169
:103F8000FCF7CAFA60B940F28C00C2F200008178F6
:103F9000002918BF80BD4FF4A011C16001214180EC
:103FA00080BD00BF74656D702063686B0000000009
:103FB00040F28C01C2F200014861704770B584B0D4
:103FC00040F28C05C2F20005A878022808D001282A
:103FD0005FD1E88900285FD00138E88104B070BD66
:103FE0004020ADF80E0040F290204FF0FF36C2F2B4
:103FF00000000DF10E02902102230096FDF794FDC2
:1040000095ED060A9FED4B1ABDEEC00AB8EE400AC8
:1040100080EE010AB1EE041A9FED472A20EE010A54
:10402000B4EE420AF1EE10FAD8BFB0EE420A31EE19
:10403000401A80EE010A9FED411A20EE010A01F0BC
:1040400063F89FED3F1A9FED3F2A9FED3F3A20EE28
:10405000011A31EE021A20EE032A20EE022A22EE85
:10406000000A30EE010AB7EE001A81EE000A9FED59
:10407000371A40F20F00C2F20000012130EE010AAF
:1040800085ED070A0170686900210028A97018BF32
:10409000804704B070BD00BF40F290244120C2F2BE
:1040A00000048DF80B004FF0FF360DF10B02204697
:1040B000902101230096FDF737FD0DF10A022046FD
:1040C000902101230096FDF7A1FB0DF10902204686
:1040D000902101230096FDF799FB9DF80900A9891D
:1040E0000844E978A8810131CAB2022AE9701DD9D1
:1040F00080B24AF6AB214843400C00EE100A022081
:10410000A8704FF64070ADF80C0040F29020B8EE69
:10411000400AC2F2000003AA9021022385ED060A9C
:104120000096FDF701FD04B070BD00BF1420E881CA
:1041300004B070BD00007F436F12833A00007A44E0
:104140003D0C7A394813913AC8BE8B33339388C3F8
:1041500040F22C30C2F20000FEF7D4BBB0B540F202
:10416000FF7E0568C4F2000E40F2000C7045C4F2F8
:10417000010C1DDD40F60003C4F20003984220D07C
:1041800060451ED040F60043C4F20003984218D0A8
:104190004FF6FF73C4F2000398421DDC704527DC24
:1041A000B0F1804F3CD040F20043C4F2000335E050
:1041B000B0F1804F05D040F20043C4F200039842B2
:1041C000E6D14B6825F0700243EA02054FF6FF7313
:1041D000C4F200039842E1DD44F2FF33C4F201036C
:1041E000984211DC60451BD044F2000314E000BF8C
:1041F00040F60003C4F20003984211D040F6004399
:10420000C4F200030AE000BF44F60003C4F2010355
:10421000984205D044F20043C4F20103984204D10D
:10422000CB6825F4407243EA02050A688C684B6942
:104230006045C462826202D10969CCF8301002681C
:1042400025F0800142F0040219430260012242611C
:104250000160B0BD806B0021C185FEF709BE000082
:10426000806B01684A6990F84130212B2DD112F002
:1042700080022AD00021C184016851E8031F02682E
:1042800021F0C00142E80313DBB1016851E8031FCC
:10429000026821F0C00142E8031393B1016851E8BC
:1042A000031F026821F0C00142E803134BB101680B
:1042B00051E8031F026821F0C00142E80313002BFC
:1042C000DAD1202180F841100168496990F8422034
:1042D000222A40F07D8011F0400179D00021C18573
:1042E000016851E8031F026821F4907142E803134A
:1042F000BBB3016851E8031F026821F4907142E8E2
:10430000031373B3016851E8031F026821F490712D
:1043100042E803132BB3016851E8031F026821F43C
:10432000907142E80313002BDAD11AE0016851E8DA
:10433000051F026821F0010142E80513DBB10168A5
:1043400051E8051F026821F0010142E8051393B10D
:10435000016851E8051F026821F0010142E80513D8
:104360004BB1016851E8051F026821F0010142E8E4
:104370000513002BDAD1016B012924D1016851E822
:10438000031F026821F0100142E80313DBB101684A
:1043900051E8031F026821F0100142E8031393B1B2
:1043A000016851E8031F026821F0100142E803137D
:1043B0004BB1016851E8031F026821F0100142E887
:1043C0000313002BDAD1202180F842100021016371
:1043D000416C41F010014164FEF74ABD0168806BF9
:1043E0000968C90500F19F800021C185016851E875
:1043F000031F026821F4807142E80313E3B10168EE
:1044000051E8031F026821F4807142E803139BB155
:10441000016851E8031F026821F4807142E8031328
:1044200053B1016851E8031F026821F4807142E82A
:104430000313002BDAD100BF016851E8051F0268A1
:1044400021F0010142E80513BBB3016851E8051FE3
:10445000026821F0010142E8051373B3016851E8D5
:10446000051F026821F0010142E805132BB3016822
:1044700051E8051F026821F0010142E80513002BF5
:10448000DAD11AE0016851E8051F026821F0400105
:1044900042E80513DBB1016851E8051F026821F00D
:1044A000400142E8051393B1016851E8051F026815
:1044B00021F0400142E805134BB1016851E8051FA6
:1044C000026821F0400142E80513002BDAD12021D7
:1044D00080F84210016B012925D100BF016851E825
:1044E000031F026821F0100142E80313DBB10168E9
:1044F00051E8031F026821F0100142E8031393B151
:10450000016851E8031F026821F0100142E803131B
:104510004BB1016851E8031F026821F0100142E825
:104520000313002BDAD100214163016B012918BF6D
:10453000FFF7DEB8818DFEF799BC0000806B01218A
:104540004163016B012918BFFFF7D4B8818D490879
:10455000FEF78CBC0168806B0968C90548BFFFF78E
:1045600035B90021C18400BF016851E8051F026808
:1045700021F0800142E8051383B3016851E8051F6B
:10458000026821F0800142E805133BB3016851E85D
:10459000051F026821F0800142E80513F3B10168AC
:1045A00051E8051F026821F0800142E80513002B45
:1045B000DAD113E0016851E8031F026841F04001BD
:1045C00042E80313002B08BF7047016851E8031F3E
:1045D000026841F0400142E8031393B1016851E8D9
:1045E000031F026841F0400142E803134BB1016828
:1045F00051E8031F026841F0400142E80313002B19
:10460000D8D17047806BFFF7E3B8000081B090F815
:104610004210222921D183680246B3F5805F09D177
:1046200052F8281F52F8183C002B63D003685B68CF
:104630000AE000BF52F8281F13B90369002BF5D018
:1046400003685B6803F07F030B7011680131116030
:10465000C18D01390A04C18502D001B0704700BF85
:104660000168CA6822F02002CA60CA6822F4807217
:10467000CA604A6922F001024A61202180F8421092
:1046800000214163026B012A3CD10163016851E8BA
:10469000031F026821F0100142E80313DBB1016837
:1046A00051E8031F026821F0100142E8031393B19F
:1046B000016851E8031F026821F0100142E803136A
:1046C0004BB1016851E8031F026821F0100142E874
:1046D0000313002BDAD101680A68D20606D500223E
:1046E00000920A680092496800910099818D01B09A
:1046F000FEF7BCBB026852686FF35F2221F8022B01
:104700008162A5E701B0FEF7F3BF0000B0B5044633
:10471000006804F108030ECB0569194325F44055E0
:104720002A4302616269E3691143C268194349F28D
:104730000C639A431143C1604169A26921F440713D
:1047400041F20043114340F48062C4F201039A42F3
:10475000416103D1FDF7C6FC02E000BFFDF7AEFCEE
:10476000E1694FF69C7563681922C0F6FF75B1F5D3
:10477000004FA0FB02011FD15A00DB0FFBF794FD95
:1047800048F21F51C5F2EB11A0FB01235A0905F1B4
:10479000805302FB0300322303EBC000A0FB0101A6
:1047A0004FF4F87000EA111000EB0210C1F342114F
:1047B000084421688860B0BD9A009B0FFBF774FD28
:1047C00048F21F51C5F2EB11A0FB01235A0902FB6D
:1047D0000500322303EB0010A0FB0101F02000EAEA
:1047E000511000EB0210C1F34311084421688860A6
:1047F000B0BD0000F0B581B040F27434C2F20004E4
:104800002046FEF737FB20680168C90628D500243A
:104810000094016840F2841500914068C2F20005DE
:104820000090009840F2D010C2F20000006840688A
:104830002988C0F1800086B2B14211D040F204173D
:10484000C2F200072888385C00F05CFA2888013042
:1048500081B28029288028BF2C802888B042F1D1DD
:1048600001B0F0BDFEE7000010B540F2AC04C2F2AA
:1048700000040020C4F8030044F6E540C0F6000040
:10488000FFF762FA44F6C540C0F60000FBF7A4FF4C
:1048900044F6F540C0F60000FFF78AFB44F6D54029
:1048A000C0F60000FCF788F808A0FFF7FFF909A0A0
:1048B000FBF762FF0AA0FFF761FB0CA0FCF766F8AC
:1048C000607EE0710120A07010BD00BF6C656420A7
:1048D00063686B0062757A7A2063686B0000000081
:1048E00074656D702063686B000000006364732062
:1048F00063686B0080B582B00AA0FFF7D7F90CA0FF
:10490000FBF73AFF40F2AC00C2F20000417E01200A
:104910008DF807000DF107021020012300F0F0FAD6
:1049200002B080BD6C656420746F67676C650000C1
:1049300062757A7A207377656570000092B040F2F4
:104940000008C4F20208FDF75DFAFFF7ABFA002792
:1049500043F630040497CDE90277CDE90077089754
:10496000C4F2020420684FF4087140F00400206093
:104970002068002200F0040008900898089720683A
:1049800040F080002060206800F0800008900898C7
:104990000897206840F001002060206800F00100C6
:1049A000089008980897206840F00200206020686E
:1049B00000F00200089008984046FCF769FE4FF4AA
:1049C000005000904FF4041008F500666D46CDE9E4
:1049D000010730462946FCF77DFD2020009001208C
:1049E000CDE90107404629460397FCF773FD802077
:1049F000CDE900070220029030462946FCF76AFD07
:104A00004FF4007000901120CDE90107404629467F
:104A10000397FCF75FFD00972068002140F4001029
:104A200020602068002200F4001000900098102000
:104A3000FDF756FA1020FDF741FA1120002100225F
:104A4000FDF74EFA1120FDF739FA40F27435A8F55A
:104A5000DE30C2F200054FF4E1310C2285E883001C
:104A60002846C5E90377C5E90527EF61FEF7CCFCC9
:104A700010B172B6FEE700BF40F29020A8F5D63123
:104A8000C2F2000048F2A0624FF48043C0F201027B
:104A900080E88600C0E90373C0E90577C0E90777BD
:104AA000FCF702FE10B172B6FEE700BF40F28810BC
:104AB00001230024A8F56041C2F20000C0F6007393
:104AC000012603944FF48032047680F82040C0E938
:104AD0000A34C66180F8304080E81600C0E903441B
:104AE0004661FCF79DF818B172B600BFFEE700BF43
:104AF0000720029040F28810C2F200006946CDE91A
:104B00000046FBF7EBFF18B172B600BFFEE700BF2F
:104B100040F2E4200021A8F58032C2F200004F23C9
:104B200041F63F77CDE910110691C0E90023C0E9B5
:104B30000217C0E904118161FEF7BAF810B172B62C
:104B4000FEE700BF40F2E420C2F2000010A9FDF72A
:104B50002BFD18B172B600BFFEE700BF60200890C1
:104B600040F2E4200024C2F2000008A90022CDE9AE
:104B70000944CDE90B44CDE90D44FDF79BFF18B185
:104B800072B600BFFEE700BF4FF40050059040F240
:104B9000E420C2F2000069460494CDE90244CDE964
:104BA00000440794FDF7DAFC10B172B6FEE700BFCF
:104BB00040F2E420C2F20000FDF74CFF40F22C303E
:104BC0000021C2F200004FF0804241F63F7363279C
:104BD0000391CDE90111CDE90811C0E90023C0E935
:104BE000021701618161FDF729FD18B172B600BF9E
:104BF000FEE700BF4FF48050009040F22C30C2F22C
:104C000000006946FDF7ACFD10B172B6FEE700BFCB
:104C100040F22C30C2F2000008A9FDF7C5FC08B133
:104C200072B6FEE740F2AC06C2F20006A8F5E83123
:104C3000304640F80C1F0621F922C0E90112FDF7A9
:104C40009DF808B172B6FEE7FFF728F8FBF786FD7E
:104C500040F22C30C2F20000FDF740FD40F2E420AB
:104C6000C2F2000000210024FEF76CF800942868CE
:104C7000802201680091416800910099C16841F06B
:104C80001001C16040F20411C2F200012846FEF793
:104C90006FFC06F10C0502E0C820FCF707FC7778F2
:104CA00040462021FCF7ECFC012FF5D04FF4FA70C0
:104CB000FCF7FCFB30780128F1D12846FDF78EF88F
:104CC0003470ECE740F2AC00C2F200000121017147
:104CD00000F0EAB940F2AC00C2F20000012181719B
:104CE00000F0E2B940F2AC00C2F200000121C17054
:104CF00000F0DAB940F2AC00C2F2000001214171CB
:104D000000F0D2B9F0B581B040F2AC04C2F20004B8
:104D1000217A022908D0012910D160720020A072E6
:104D20000225257201B0F0BDA17A627A3F2998BFB1
:104D3000914209D391420DD001B0F0BD7E28FBD144
:104D40000125257201B0F0BD63180131A1721876FA
:104D50009142F1D1901E04EB0001B1F818C00FD0C0
:104D600080B24FF6FF754AF20101012802F0010EF0
:104D70000AD100200022BEF1000F69D193E000BFEC
:104D80004FF6FF708FE000BFAEEB00006FF0010345
:104D9000E218967ED27E754081EA5506EF0708BF7D
:104DA0006E0881EA5605F70708BF750881EA5506BF
:104DB000EF0708BF6E0881EA5605F70708BF7508B8
:104DC00081EA5506EF0708BF6E0881EA5605F70726
:104DD00008BF750881EA5506EF0708BF6E0881EA2B
:104DE0005605F70708BF75086A4081EA5205D607DD
:104DF00008BF550881EA5502EE0708BF6A0881EA34
:104E00005205D60708BF550881EA5502EE0708BFCC
:104E10006A0881EA5205D60708BF550881EA55029B
:104E2000EE0708BF6A0881EA5206D50708BF560890
:104E3000F20703F1020381EA560500EB030208BF03
:104E400075080232A4D19A1C2846BEF1000F2AD060
:104E5000A018007E684081EA5002C30708BF4208DC
:104E600081EA5200D30708BF500881EA5002C30705
:104E700008BF420881EA5200D30708BF500881EA00
:104E80005002C30708BF420881EA5200D30708BF97
:104E9000500881EA5002C30708BF420881EA520065
:104EA000D10708BF500884454FF000057FF449AF93
:104EB000A07E00287FF445AF207E122810D0112854
:104EC00008D010287FF43DAF0021FFF713FD2572B5
:104ED00001B0F0BD0021FFF7C7FC257201B0F0BDA5
:104EE000012060702570617E8DF803000DF10302D2
:104EF0001220012300F004F8257201B0F0BD00007B
:104F00002DE9F04703AF82B099460E3323F0070333
:104F10004AF20106ADEB030AD5467E238AF8020069
:104F200001200AF105088AF8003009F105038AF822
:104F300003108AF80400404611464A468AF80130B8
:104F4000FBF77EFA09F1030C2CF0010042424FF608
:104F5000FF736FF0010100BF0AEB01000479407993
:104F6000634086EA5304DD0708BF5C0886EA540301
:104F7000E50708BF630886EA5305DC0708BF5D083C
:104F800086EA5503EC0708BF6B0886EA5305DC0781
:104F900008BF5D0886EA5503EC0708BF6B0886EA80
:104FA0005305DC0708BF5D0886EA5503EC0708BF18
:104FB0006B08584086EA5003C50708BF430886EAD5
:104FC0005300DD0708BF580886EA5003C50708BF2D
:104FD000430886EA5300DD0708BF580886EA5003F5
:104FE000C50708BF430886EA5300DD0708BF580815
:104FF00086EA5005C30708BF4508E80701F102012A
:1050000086EA550302EB010008BF6B080230A3D10A
:105010005FEACC7004D1D8B2C3F307212FE000BF00
:105020000AEB01000079584086EA5001C20708BF28
:10503000410886EA5100CA0708BF480886EA5001BD
:10504000C20708BF410886EA5100CA0708BF4808DE
:1050500086EA5001C20708BF410886EA5100CA0724
:1050600008BF480886EA5001C20708BF410886EA1F
:105070005102C80708BF4A08D0B2C2F3072108EBA3
:10508000090208F80900A2EB0A000230517082B24E
:1050900040F27430C2F200005146FEF72DFBA7F13A
:1050A0000C04A546BDE8F08710B582B040F2AC0410
:1050B000C2F20004A078012824D1E078012821D18F
:1050C000207901281ED1607901281BD1A0790128FF
:1050D00018D1FEF7D7FD8DF80000FBF733FB8DF8F4
:1050E0000100FBF747FCADF80200FEF739FF10EEB8
:1050F000100AE17901906A4611200823FFF700FFAA
:105100000020A07002B010BD10EE100A10B50023F0
:10511000A0F50001B1F1FE4F67D200BF00F50021FC
:105120006FF07E0202EBE15CC1F302524FF07E5160
:1051300001EB025100EE901AA0EBCC5003EB0C01F6
:1051400000EE100A51EA020036D030EE601A70EE1E
:10515000200A9FED3D2A3E4881EE200A9FED3B1A32
:1051600060EE000A00EE821A60EE201A61EE810AFB
:10517000784401EE101A00EB82009FED362AB8EE5B
:10518000C11AD0ED001A344841EE021A784401EEFB
:10519000101A00EB8200B8EEC11A90ED002ADFED84
:1051A0002F2A01EE222AB0EE001A72EE200A40EEFB
:1051B000010A31EEA00A10BDF7EE000A9FED291A90
:1051C00030EE600ADFED260A00EE201ADFED260A37
:1051D00060EE001A40EE010A9FED241A00EE201A3C
:1051E00061EE810A30EE200A10BD4FF07F41B1EB35
:1051F000400F03D2BDE8104000F046B8B0F1FF4FB9
:1052000008BF10BDB5EEC00AF1EE10FA06D20120BB
:10521000FBF7C8F9BDE8104000F03AB8B5EEC00A97
:10522000F1EE10FA07D10220FBF7BCF900F022F8EA
:10523000B1EE400A10BDDFED0E0A6FF0160320EE4E
:10524000200A10EE100A69E766F1CC3EAAAA2A3FAE
:10525000700100000070313F74010000F4FD05385A
:1052600021ED423E0A1180BEC1ABAA3EFFFFFFBE48
:105270000000004BDFED030AB7EE001A81EE200AB2
:10528000704700000000000030EE000A7047000088
:10529000DFED020A80EEA00A704700000000000067
:1052A000F1EE100A4FF6FF71C0F2C03120EA0100A2
:1052B00040F04070E1EE100A70473031323334353F
:1052C0003637383941424344454640305800303142
:1052D000323334353637383961626364656640305D
:1052E00078000000000000000030F13D0070643ED6
:1052F0000000A33E0090CF3E0090F83E00400F3FDC
:1053000000E0203F0000000015B78337CDE37B3875
:105310000EE1C53860F69138AF5F0F38E1BC3E381A
:1053200023F44739000000000000000001020304DC
:105330000607080900000000010203040006101619
:10534000000610166853000800000020100000003E
:10535000F80100087853000810000020B00F00008A
:10536000180200080000000001000000100000000A
:085370000024F4000101010119
:040000050800019559
:00000001FF
